{
  "_format": "hh-sol-artifact-1",
  "contractName": "NFTMarketplace",
  "sourceName": "contracts/NFTMarketplace.sol",
  "abi": [
    {
      "inputs": [],
      "stateMutability": "nonpayable",
      "type": "constructor"
    },
    {
      "anonymous": false,
      "inputs": [
        {
          "indexed": true,
          "internalType": "address",
          "name": "owner",
          "type": "address"
        },
        {
          "indexed": true,
          "internalType": "address",
          "name": "approved",
          "type": "address"
        },
        {
          "indexed": true,
          "internalType": "uint256",
          "name": "tokenId",
          "type": "uint256"
        }
      ],
      "name": "Approval",
      "type": "event"
    },
    {
      "anonymous": false,
      "inputs": [
        {
          "indexed": true,
          "internalType": "address",
          "name": "owner",
          "type": "address"
        },
        {
          "indexed": true,
          "internalType": "address",
          "name": "operator",
          "type": "address"
        },
        {
          "indexed": false,
          "internalType": "bool",
          "name": "approved",
          "type": "bool"
        }
      ],
      "name": "ApprovalForAll",
      "type": "event"
    },
    {
      "anonymous": false,
      "inputs": [
        {
          "indexed": false,
          "internalType": "uint256",
          "name": "_fromTokenId",
          "type": "uint256"
        },
        {
          "indexed": false,
          "internalType": "uint256",
          "name": "_toTokenId",
          "type": "uint256"
        }
      ],
      "name": "BatchMetadataUpdate",
      "type": "event"
    },
    {
      "anonymous": false,
      "inputs": [
        {
          "indexed": false,
          "internalType": "uint256",
          "name": "_tokenId",
          "type": "uint256"
        }
      ],
      "name": "MetadataUpdate",
      "type": "event"
    },
    {
      "anonymous": false,
      "inputs": [
        {
          "indexed": true,
          "internalType": "address",
          "name": "from",
          "type": "address"
        },
        {
          "indexed": true,
          "internalType": "address",
          "name": "to",
          "type": "address"
        },
        {
          "indexed": true,
          "internalType": "uint256",
          "name": "tokenId",
          "type": "uint256"
        }
      ],
      "name": "Transfer",
      "type": "event"
    },
    {
      "inputs": [
        {
          "internalType": "address",
          "name": "to",
          "type": "address"
        },
        {
          "internalType": "uint256",
          "name": "tokenId",
          "type": "uint256"
        }
      ],
      "name": "approve",
      "outputs": [],
      "stateMutability": "nonpayable",
      "type": "function"
    },
    {
      "inputs": [
        {
          "internalType": "address",
          "name": "owner",
          "type": "address"
        }
      ],
      "name": "balanceOf",
      "outputs": [
        {
          "internalType": "uint256",
          "name": "",
          "type": "uint256"
        }
      ],
      "stateMutability": "view",
      "type": "function"
    },
    {
      "inputs": [
        {
          "internalType": "string",
          "name": "tokenURI",
          "type": "string"
        },
        {
          "internalType": "uint256",
          "name": "price",
          "type": "uint256"
        }
      ],
      "name": "createToken",
      "outputs": [
        {
          "internalType": "uint256",
          "name": "",
          "type": "uint256"
        }
      ],
      "stateMutability": "payable",
      "type": "function"
    },
    {
      "inputs": [],
      "name": "getAllNFTs",
      "outputs": [
        {
          "components": [
            {
              "internalType": "uint256",
              "name": "tokenId",
              "type": "uint256"
            },
            {
              "internalType": "address payable",
              "name": "owner",
              "type": "address"
            },
            {
              "internalType": "uint256",
              "name": "price",
              "type": "uint256"
            },
            {
              "internalType": "bool",
              "name": "currentlyListed",
              "type": "bool"
            }
          ],
          "internalType": "struct NFTMarketplace.ListedToken[]",
          "name": "",
          "type": "tuple[]"
        }
      ],
      "stateMutability": "view",
      "type": "function"
    },
    {
      "inputs": [
        {
          "internalType": "uint256",
          "name": "tokenId",
          "type": "uint256"
        }
      ],
      "name": "getApproved",
      "outputs": [
        {
          "internalType": "address",
          "name": "",
          "type": "address"
        }
      ],
      "stateMutability": "view",
      "type": "function"
    },
    {
      "inputs": [],
      "name": "getCurrentToken",
      "outputs": [
        {
          "internalType": "uint256",
          "name": "",
          "type": "uint256"
        }
      ],
      "stateMutability": "view",
      "type": "function"
    },
    {
      "inputs": [],
      "name": "getLatestIdToListedToken",
      "outputs": [
        {
          "components": [
            {
              "internalType": "uint256",
              "name": "tokenId",
              "type": "uint256"
            },
            {
              "internalType": "address payable",
              "name": "owner",
              "type": "address"
            },
            {
              "internalType": "uint256",
              "name": "price",
              "type": "uint256"
            },
            {
              "internalType": "bool",
              "name": "currentlyListed",
              "type": "bool"
            }
          ],
          "internalType": "struct NFTMarketplace.ListedToken",
          "name": "",
          "type": "tuple"
        }
      ],
      "stateMutability": "view",
      "type": "function"
    },
    {
      "inputs": [],
      "name": "getListPrice",
      "outputs": [
        {
          "internalType": "uint256",
          "name": "",
          "type": "uint256"
        }
      ],
      "stateMutability": "view",
      "type": "function"
    },
    {
      "inputs": [
        {
          "internalType": "uint256",
          "name": "tokenId",
          "type": "uint256"
        }
      ],
      "name": "getListedForTokenId",
      "outputs": [
        {
          "components": [
            {
              "internalType": "uint256",
              "name": "tokenId",
              "type": "uint256"
            },
            {
              "internalType": "address payable",
              "name": "owner",
              "type": "address"
            },
            {
              "internalType": "uint256",
              "name": "price",
              "type": "uint256"
            },
            {
              "internalType": "bool",
              "name": "currentlyListed",
              "type": "bool"
            }
          ],
          "internalType": "struct NFTMarketplace.ListedToken",
          "name": "",
          "type": "tuple"
        }
      ],
      "stateMutability": "view",
      "type": "function"
    },
    {
      "inputs": [],
      "name": "getMyNFTs",
      "outputs": [
        {
          "components": [
            {
              "internalType": "uint256",
              "name": "tokenId",
              "type": "uint256"
            },
            {
              "internalType": "address payable",
              "name": "owner",
              "type": "address"
            },
            {
              "internalType": "uint256",
              "name": "price",
              "type": "uint256"
            },
            {
              "internalType": "bool",
              "name": "currentlyListed",
              "type": "bool"
            }
          ],
          "internalType": "struct NFTMarketplace.ListedToken[]",
          "name": "",
          "type": "tuple[]"
        }
      ],
      "stateMutability": "view",
      "type": "function"
    },
    {
      "inputs": [
        {
          "internalType": "address",
          "name": "owner",
          "type": "address"
        },
        {
          "internalType": "address",
          "name": "operator",
          "type": "address"
        }
      ],
      "name": "isApprovedForAll",
      "outputs": [
        {
          "internalType": "bool",
          "name": "",
          "type": "bool"
        }
      ],
      "stateMutability": "view",
      "type": "function"
    },
    {
      "inputs": [],
      "name": "name",
      "outputs": [
        {
          "internalType": "string",
          "name": "",
          "type": "string"
        }
      ],
      "stateMutability": "view",
      "type": "function"
    },
    {
      "inputs": [
        {
          "internalType": "uint256",
          "name": "tokenId",
          "type": "uint256"
        }
      ],
      "name": "ownerOf",
      "outputs": [
        {
          "internalType": "address",
          "name": "",
          "type": "address"
        }
      ],
      "stateMutability": "view",
      "type": "function"
    },
    {
      "inputs": [
        {
          "internalType": "address",
          "name": "from",
          "type": "address"
        },
        {
          "internalType": "address",
          "name": "to",
          "type": "address"
        },
        {
          "internalType": "uint256",
          "name": "tokenId",
          "type": "uint256"
        }
      ],
      "name": "safeTransferFrom",
      "outputs": [],
      "stateMutability": "nonpayable",
      "type": "function"
    },
    {
      "inputs": [
        {
          "internalType": "address",
          "name": "from",
          "type": "address"
        },
        {
          "internalType": "address",
          "name": "to",
          "type": "address"
        },
        {
          "internalType": "uint256",
          "name": "tokenId",
          "type": "uint256"
        },
        {
          "internalType": "bytes",
          "name": "data",
          "type": "bytes"
        }
      ],
      "name": "safeTransferFrom",
      "outputs": [],
      "stateMutability": "nonpayable",
      "type": "function"
    },
    {
      "inputs": [
        {
          "internalType": "address",
          "name": "operator",
          "type": "address"
        },
        {
          "internalType": "bool",
          "name": "approved",
          "type": "bool"
        }
      ],
      "name": "setApprovalForAll",
      "outputs": [],
      "stateMutability": "nonpayable",
      "type": "function"
    },
    {
      "inputs": [
        {
          "internalType": "bytes4",
          "name": "interfaceId",
          "type": "bytes4"
        }
      ],
      "name": "supportsInterface",
      "outputs": [
        {
          "internalType": "bool",
          "name": "",
          "type": "bool"
        }
      ],
      "stateMutability": "view",
      "type": "function"
    },
    {
      "inputs": [],
      "name": "symbol",
      "outputs": [
        {
          "internalType": "string",
          "name": "",
          "type": "string"
        }
      ],
      "stateMutability": "view",
      "type": "function"
    },
    {
      "inputs": [
        {
          "internalType": "uint256",
          "name": "tokenId",
          "type": "uint256"
        }
      ],
      "name": "tokenURI",
      "outputs": [
        {
          "internalType": "string",
          "name": "",
          "type": "string"
        }
      ],
      "stateMutability": "view",
      "type": "function"
    },
    {
      "inputs": [
        {
          "internalType": "address",
          "name": "from",
          "type": "address"
        },
        {
          "internalType": "address",
          "name": "to",
          "type": "address"
        },
        {
          "internalType": "uint256",
          "name": "tokenId",
          "type": "uint256"
        }
      ],
      "name": "transferFrom",
      "outputs": [],
      "stateMutability": "nonpayable",
      "type": "function"
    },
    {
      "inputs": [
        {
          "internalType": "uint256",
          "name": "_listPrice",
          "type": "uint256"
        }
      ],
      "name": "updateListPrice",
      "outputs": [],
      "stateMutability": "payable",
      "type": "function"
    }
  ],
  "bytecode": "0x6080604052662386f26fc10000600a553480156200001c57600080fd5b50604080518082018252600e81526d4e46544d61726b6574706c61636560901b6020808301918252835180850190945260048452634e46544d60e01b9084015281519192916200006f91600091620000a0565b50805162000085906001906020840190620000a0565b5050600780546001600160a01b031916331790555062000183565b828054620000ae9062000146565b90600052602060002090601f016020900481019282620000d257600085556200011d565b82601f10620000ed57805160ff19168380011785556200011d565b828001600101855582156200011d579182015b828111156200011d57825182559160200191906001019062000100565b506200012b9291506200012f565b5090565b5b808211156200012b576000815560010162000130565b600181811c908216806200015b57607f821691505b602082108114156200017d57634e487b7160e01b600052602260045260246000fd5b50919050565b611e9080620001936000396000f3fe60806040526004361061012a5760003560e01c806372b3b620116100ab578063c322579c1161006f578063c322579c14610336578063c87b56dd14610349578063d1a88ae514610369578063e0391b091461037e578063e985e9c514610393578063ef2d1746146103dc57600080fd5b806372b3b620146102a157806395d89b41146102b457806398c3df16146102c9578063a22cb465146102f6578063b88d4fde1461031657600080fd5b806342842e0e116100f257806342842e0e14610200578063629cb2e4146102205780636352211e1461024257806368f1945f1461026257806370a082311461028157600080fd5b806301ffc9a71461012f57806306fdde0314610164578063081812fc14610186578063095ea7b3146101be57806323b872dd146101e0575b600080fd5b34801561013b57600080fd5b5061014f61014a366004611a9c565b6103f1565b60405190151581526020015b60405180910390f35b34801561017057600080fd5b5061017961041c565b60405161015b9190611c51565b34801561019257600080fd5b506101a66101a1366004611b2a565b6104ae565b6040516001600160a01b03909116815260200161015b565b3480156101ca57600080fd5b506101de6101d9366004611a73565b6104d5565b005b3480156101ec57600080fd5b506101de6101fb366004611985565b6105f0565b34801561020c57600080fd5b506101de61021b366004611985565b610621565b34801561022c57600080fd5b5061023561063c565b60405161015b9190611bda565b34801561024e57600080fd5b506101a661025d366004611b2a565b610806565b34801561026e57600080fd5b50600a545b60405190815260200161015b565b34801561028d57600080fd5b5061027361029c366004611939565b610866565b6102736102af366004611ad4565b6108ec565b3480156102c057600080fd5b50610179610a49565b3480156102d557600080fd5b506102e96102e4366004611b2a565b610a58565b60405161015b9190611d48565b34801561030257600080fd5b506101de610311366004611a39565b610ab3565b34801561032257600080fd5b506101de6103313660046119c0565b610ac2565b6101de610344366004611b2a565b610afa565b34801561035557600080fd5b50610179610364366004611b2a565b610b69565b34801561037557600080fd5b506102e9610c7a565b34801561038a57600080fd5b50610235610ce2565b34801561039f57600080fd5b5061014f6103ae366004611953565b6001600160a01b03918216600090815260056020908152604080832093909416825291909152205460ff1690565b3480156103e857600080fd5b50610273610e1a565b60006001600160e01b03198216632483248360e11b1480610416575061041682610e2a565b92915050565b60606000805461042b90611dc2565b80601f016020809104026020016040519081016040528092919081815260200182805461045790611dc2565b80156104a45780601f10610479576101008083540402835291602001916104a4565b820191906000526020600020905b81548152906001019060200180831161048757829003601f168201915b5050505050905090565b60006104b982610e7a565b506000908152600460205260409020546001600160a01b031690565b60006104e082610806565b9050806001600160a01b0316836001600160a01b031614156105535760405162461bcd60e51b815260206004820152602160248201527f4552433732313a20617070726f76616c20746f2063757272656e74206f776e656044820152603960f91b60648201526084015b60405180910390fd5b336001600160a01b038216148061056f575061056f81336103ae565b6105e15760405162461bcd60e51b815260206004820152603d60248201527f4552433732313a20617070726f76652063616c6c6572206973206e6f7420746f60448201527f6b656e206f776e6572206f7220617070726f76656420666f7220616c6c000000606482015260840161054a565b6105eb8383610edc565b505050565b6105fa3382610f4a565b6106165760405162461bcd60e51b815260040161054a90611c64565b6105eb838383610fc8565b6105eb83838360405180602001604052806000815250610ac2565b6060600061064960085490565b905060008080805b848110156106ac5733600b6000610669846001611d7e565b81526020810191909152604001600020600101546001600160a01b0316141561069a57610697600185611d7e565b93505b806106a481611dfd565b915050610651565b5060008367ffffffffffffffff8111156106d657634e487b7160e01b600052604160045260246000fd5b60405190808252806020026020018201604052801561070f57816020015b6106fc6117db565b8152602001906001900390816106f45790505b50905060005b858110156107fc5733600b600061072d846001611d7e565b81526020810191909152604001600020600101546001600160a01b031614156107ea5761075b816001611d7e565b6000818152600b602090815260409182902082516080810184528154815260018201546001600160a01b031692810192909252600281015492820192909252600382015460ff1615156060820152845192955090918490879081106107d057634e487b7160e01b600052603260045260246000fd5b60209081029190910101526107e6600186611d7e565b9450505b806107f481611dfd565b915050610715565b5095945050505050565b6000818152600260205260408120546001600160a01b0316806104165760405162461bcd60e51b8152602060048201526018602482015277115490cdcc8c4e881a5b9d985b1a59081d1bdad95b88125160421b604482015260640161054a565b60006001600160a01b0382166108d05760405162461bcd60e51b815260206004820152602960248201527f4552433732313a2061646472657373207a65726f206973206e6f7420612076616044820152683634b21037bbb732b960b91b606482015260840161054a565b506001600160a01b031660009081526003602052604090205490565b6000600a54341461093f5760405162461bcd60e51b815260206004820152601960248201527f53656e6420456e6f75676820457468657220746f206c69737400000000000000604482015260640161054a565b6000821161099d5760405162461bcd60e51b815260206004820152602560248201527f4d616b652073757265207072696365206973206e6f74206c657373207468616e604482015264207a65726f60d81b606482015260840161054a565b6109ab600880546001019055565b60006109b660085490565b90506109c2338261112c565b6109cc8185611146565b604080516080810182528281523060208083019182528284018781526001606085018181526000888152600b9094529590922093518455915190830180546001600160a01b0319166001600160a01b0390921691909117905551600282015590516003909101805460ff19169115159190911790555b9392505050565b60606001805461042b90611dc2565b610a606117db565b506000908152600b602090815260409182902082516080810184528154815260018201546001600160a01b03169281019290925260028101549282019290925260039091015460ff161515606082015290565b610abe338383611218565b5050565b610acc3383610f4a565b610ae85760405162461bcd60e51b815260040161054a90611c64565b610af4848484846112e7565b50505050565b6007546001600160a01b03163314610b645760405162461bcd60e51b815260206004820152602760248201527f4f6e6c79206f776e65722063616e2075706461746520746865206c697374696e6044820152666720707269636560c81b606482015260840161054a565b600a55565b6060610b7482610e7a565b60008281526006602052604081208054610b8d90611dc2565b80601f0160208091040260200160405190810160405280929190818152602001828054610bb990611dc2565b8015610c065780601f10610bdb57610100808354040283529160200191610c06565b820191906000526020600020905b815481529060010190602001808311610be957829003601f168201915b505050505090506000610c2460408051602081019091526000815290565b9050805160001415610c37575092915050565b815115610c69578082604051602001610c51929190611b6e565b60405160208183030381529060405292505050919050565b610c728461131a565b949350505050565b610c826117db565b6000610c8d60085490565b6000908152600b602090815260409182902082516080810184528154815260018201546001600160a01b03169281019290925260028101549282019290925260039091015460ff161515606082015292915050565b60606000610cef60085490565b905060008167ffffffffffffffff811115610d1a57634e487b7160e01b600052604160045260246000fd5b604051908082528060200260200182016040528015610d5357816020015b610d406117db565b815260200190600190039081610d385790505b5090506000805b83811015610e11576000610d6f826001611d7e565b6000818152600b602090815260409182902082516080810184528154815260018201546001600160a01b031692810192909252600281015492820192909252600382015460ff161515606082015286519293509091869086908110610de457634e487b7160e01b600052603260045260246000fd5b6020908102919091010152610dfa600185611d7e565b935050508080610e0990611dfd565b915050610d5a565b50909392505050565b6000610e2560085490565b905090565b60006001600160e01b031982166380ac58cd60e01b1480610e5b57506001600160e01b03198216635b5e139f60e01b145b8061041657506301ffc9a760e01b6001600160e01b0319831614610416565b6000818152600260205260409020546001600160a01b0316610ed95760405162461bcd60e51b8152602060048201526018602482015277115490cdcc8c4e881a5b9d985b1a59081d1bdad95b88125160421b604482015260640161054a565b50565b600081815260046020526040902080546001600160a01b0319166001600160a01b0384169081179091558190610f1182610806565b6001600160a01b03167f8c5be1e5ebec7d5bd14f71427d1e84f3dd0314c0f7b2291e5b200ac8c7c3b92560405160405180910390a45050565b600080610f5683610806565b9050806001600160a01b0316846001600160a01b03161480610f9d57506001600160a01b0380821660009081526005602090815260408083209388168352929052205460ff165b80610c725750836001600160a01b0316610fb6846104ae565b6001600160a01b031614949350505050565b826001600160a01b0316610fdb82610806565b6001600160a01b0316146110015760405162461bcd60e51b815260040161054a90611d03565b6001600160a01b0382166110635760405162461bcd60e51b8152602060048201526024808201527f4552433732313a207472616e7366657220746f20746865207a65726f206164646044820152637265737360e01b606482015260840161054a565b826001600160a01b031661107682610806565b6001600160a01b03161461109c5760405162461bcd60e51b815260040161054a90611d03565b600081815260046020908152604080832080546001600160a01b03199081169091556001600160a01b0387811680865260038552838620805460001901905590871680865283862080546001019055868652600290945282852080549092168417909155905184937fddf252ad1be2c89b69c2b068fc378daa952ba7f163c4a11628f55a4df523b3ef91a4505050565b610abe82826040518060200160405280600081525061138d565b6000828152600260205260409020546001600160a01b03166111c15760405162461bcd60e51b815260206004820152602e60248201527f45524337323155524953746f726167653a2055524920736574206f66206e6f6e60448201526d32bc34b9ba32b73a103a37b5b2b760911b606482015260840161054a565b600082815260066020908152604090912082516111e09284019061180e565b506040518281527ff8e1a15aba9398e019f0b49df1a4fde98ee17ae345cb5f6b5e2c27f5033e8ce79060200160405180910390a15050565b816001600160a01b0316836001600160a01b0316141561127a5760405162461bcd60e51b815260206004820152601960248201527f4552433732313a20617070726f766520746f2063616c6c657200000000000000604482015260640161054a565b6001600160a01b03838116600081815260056020908152604080832094871680845294825291829020805460ff191686151590811790915591519182527f17307eab39ab6107e8899845ad3d59bd9653f200f220920489ca2b5937696c31910160405180910390a3505050565b6112f2848484610fc8565b6112fe848484846113c0565b610af45760405162461bcd60e51b815260040161054a90611cb1565b606061132582610e7a565b600061133c60408051602081019091526000815290565b9050600081511161135c5760405180602001604052806000815250610a42565b80611366846114cd565b604051602001611377929190611b6e565b6040516020818303038152906040529392505050565b6113978383611578565b6113a460008484846113c0565b6105eb5760405162461bcd60e51b815260040161054a90611cb1565b60006001600160a01b0384163b156114c257604051630a85bd0160e11b81526001600160a01b0385169063150b7a0290611404903390899088908890600401611b9d565b602060405180830381600087803b15801561141e57600080fd5b505af192505050801561144e575060408051601f3d908101601f1916820190925261144b91810190611ab8565b60015b6114a8573d80801561147c576040519150601f19603f3d011682016040523d82523d6000602084013e611481565b606091505b5080516114a05760405162461bcd60e51b815260040161054a90611cb1565b805181602001fd5b6001600160e01b031916630a85bd0160e11b149050610c72565b506001949350505050565b606060006114da83611703565b600101905060008167ffffffffffffffff81111561150857634e487b7160e01b600052604160045260246000fd5b6040519080825280601f01601f191660200182016040528015611532576020820181803683370190505b5090508181016020015b600019016f181899199a1a9b1b9c1cb0b131b232b360811b600a86061a8153600a850494508461156b57611570565b61153c565b509392505050565b6001600160a01b0382166115ce5760405162461bcd60e51b815260206004820181905260248201527f4552433732313a206d696e7420746f20746865207a65726f2061646472657373604482015260640161054a565b6000818152600260205260409020546001600160a01b0316156116335760405162461bcd60e51b815260206004820152601c60248201527f4552433732313a20746f6b656e20616c7265616479206d696e74656400000000604482015260640161054a565b6000818152600260205260409020546001600160a01b0316156116985760405162461bcd60e51b815260206004820152601c60248201527f4552433732313a20746f6b656e20616c7265616479206d696e74656400000000604482015260640161054a565b6001600160a01b038216600081815260036020908152604080832080546001019055848352600290915280822080546001600160a01b0319168417905551839291907fddf252ad1be2c89b69c2b068fc378daa952ba7f163c4a11628f55a4df523b3ef908290a45050565b60008072184f03e93ff9f4daa797ed6e38ed64bf6a1f0160401b83106117425772184f03e93ff9f4daa797ed6e38ed64bf6a1f0160401b830492506040015b6d04ee2d6d415b85acef8100000000831061176e576d04ee2d6d415b85acef8100000000830492506020015b662386f26fc10000831061178c57662386f26fc10000830492506010015b6305f5e10083106117a4576305f5e100830492506008015b61271083106117b857612710830492506004015b606483106117ca576064830492506002015b600a83106104165760010192915050565b60405180608001604052806000815260200160006001600160a01b03168152602001600081526020016000151581525090565b82805461181a90611dc2565b90600052602060002090601f01602090048101928261183c5760008555611882565b82601f1061185557805160ff1916838001178555611882565b82800160010185558215611882579182015b82811115611882578251825591602001919060010190611867565b5061188e929150611892565b5090565b5b8082111561188e5760008155600101611893565b600067ffffffffffffffff808411156118c2576118c2611e2e565b604051601f8501601f19908116603f011681019082821181831017156118ea576118ea611e2e565b8160405280935085815286868601111561190357600080fd5b858560208301376000602087830101525050509392505050565b80356001600160a01b038116811461193457600080fd5b919050565b60006020828403121561194a578081fd5b610a428261191d565b60008060408385031215611965578081fd5b61196e8361191d565b915061197c6020840161191d565b90509250929050565b600080600060608486031215611999578081fd5b6119a28461191d565b92506119b06020850161191d565b9150604084013590509250925092565b600080600080608085870312156119d5578081fd5b6119de8561191d565b93506119ec6020860161191d565b925060408501359150606085013567ffffffffffffffff811115611a0e578182fd5b8501601f81018713611a1e578182fd5b611a2d878235602084016118a7565b91505092959194509250565b60008060408385031215611a4b578182fd5b611a548361191d565b915060208301358015158114611a68578182fd5b809150509250929050565b60008060408385031215611a85578182fd5b611a8e8361191d565b946020939093013593505050565b600060208284031215611aad578081fd5b8135610a4281611e44565b600060208284031215611ac9578081fd5b8151610a4281611e44565b60008060408385031215611ae6578182fd5b823567ffffffffffffffff811115611afc578283fd5b8301601f81018513611b0c578283fd5b611b1b858235602084016118a7565b95602094909401359450505050565b600060208284031215611b3b578081fd5b5035919050565b60008151808452611b5a816020860160208601611d96565b601f01601f19169290920160200192915050565b60008351611b80818460208801611d96565b835190830190611b94818360208801611d96565b01949350505050565b6001600160a01b0385811682528416602082015260408101839052608060608201819052600090611bd090830184611b42565b9695505050505050565b6020808252825182820181905260009190848201906040850190845b81811015611c4557611c32838551805182526020808201516001600160a01b031690830152604080820151908301526060908101511515910152565b9284019260809290920191600101611bf6565b50909695505050505050565b602081526000610a426020830184611b42565b6020808252602d908201527f4552433732313a2063616c6c6572206973206e6f7420746f6b656e206f776e6560408201526c1c881bdc88185c1c1c9bdd9959609a1b606082015260800190565b60208082526032908201527f4552433732313a207472616e7366657220746f206e6f6e20455243373231526560408201527131b2b4bb32b91034b6b83632b6b2b73a32b960711b606082015260800190565b60208082526025908201527f4552433732313a207472616e736665722066726f6d20696e636f72726563742060408201526437bbb732b960d91b606082015260800190565b815181526020808301516001600160a01b0316908201526040808301519082015260608083015115159082015260808101610416565b60008219821115611d9157611d91611e18565b500190565b60005b83811015611db1578181015183820152602001611d99565b83811115610af45750506000910152565b600181811c90821680611dd657607f821691505b60208210811415611df757634e487b7160e01b600052602260045260246000fd5b50919050565b6000600019821415611e1157611e11611e18565b5060010190565b634e487b7160e01b600052601160045260246000fd5b634e487b7160e01b600052604160045260246000fd5b6001600160e01b031981168114610ed957600080fdfea264697066735822122090b2311370f6c4891ea2d4f559280a7b19fd49f2d7d627b5e30b198960f0001f64736f6c63430008040033",
  "linkReferences": {},
  "deployedLinkReferences": {}
}